:060003000109FF010800E5
:10011400758901758CFC758A18D2A9D28CD2AF224C
:03000B000200D818
:0400D800C0E0C0D0F4
:1000DC00758CFC758A180508C3748094814003756F
:0F00EC000800E508C395095004C2A58002D2A5FB
:0500FB00D0D0D0E0327E
:10009A00C2A520B1097F0A7E00120100B2A520B0D4
:1000AA00147F0A7E00120100E509C394FF5006740A
:1000BA00052509F50920B2DA7F0A7E00120100E55A
:0E00CA0009D3940540CC74FB2509F50980C4C8
:10010000EF4E600F7D027CEFDCFEDDFCEF1F70F038
:030110001E80ED61
:0101130022C9
:0300000002000EED
:0C000E00787FE4F6D8FD758109020055EA
:10001A0002009AE493A3F8E493A34003F68001F262
:10002A0008DFF48029E493A3F85407240CC8C333E7
:10003A00C4540F4420C8834004F456800146F6DFB6
:10004A00E4800B0102040810204080900003E47E43
:10005A00019360BCA3FF543F30E509541FFEE493AB
:10006A00A360010ECF54C025E060A840B8E493A372
:10007A00FAE493A3F8E493A3C8C582C8CAC583CA9D
:10008A00F0A3C8C582C8CAC583CADFE9DEE780BE55
:0100090000F6
:00000001FF
