:1001400031206D696E69757465206861766520700F
:100150006173736564210049206C6F766520796F47
:10016000750054696D657220737461727421210089
:0F01700054696D65722073746F70205141510096
:100003001202DAE4F508F509750E03AB09AA087DB7
:10001300017F011202A77F647E001202EEE50964EC
:100023003C450870241203317BFF7A0179407D013E
:100033007F0112025D7FB87E0B1202EE7403250965
:10004300F509E43508F5088039E509B40817E5082A
:10005300B402121203317BFF7A0179577D017F01CC
:1000630012025D801DE5094508701A1203317BFFFA
:100073007A0179627D017F0112025D7FB87E0B12E6
:1000830002EE1203310509E50970020508D394E76E
:10009300E5089403500302000B1203317BFF7A013E
:0900A30079707D017F0102025D0C
:06030200C2A58F80D2A706
:080308007F027EEFDEFEDFFC48
:0103100022CA
:0A031D00C2A6120302C2A7020308E1
:10028900CFCDCFCECCCE1200EB7C007D0A1200EB95
:04029900ED2430FF21
:0A029D00D2A6120302C2A702030852
:1002C400AE07BE0104ED148006BE0209ED243F44CE
:0602D40080FF12031D2251
:1002DA007F3812031D7F0C12031D7F0612031D7F38
:0402EA000102031DED
:080331007F0112031D02030805
:0A032700AC031202C4AF0402029DF1
:08025D008B0A8A0B890CAC0727
:100265001202C4E4FDAB0AAA0BA90C8D82758300AA
:100275001200ACFF600DEDD3940F40010C12029DEE
:030285000D80E207
:010288002253
:0C022A007F0AEA24FFFDE434FFFC7E00A4
:080236008E0F8F108C118D1248
:10023E007F017E00E4FBEBC39512E5116480F87438
:0E024E008098500AAC0FAD101200D90B80E85A
:01025C00227F
:0402A7008A0C8B0D25
:1002AB001202C4AA0EEAD39400400D12022AAC0C1F
:0802BB00AD0D1202891A80ED5D
:0102C3002218
:10017F001202C4C3EA64809480400B7F2B12029D4D
:10018F008A188B19800E7F2D12029DC3E49BF519DF
:10019F00E49AF518AA17EAD39400400D12022AAC7C
:0901AF0018AD191202891A80ED45
:0101B8002224
:0401B9008A1C8B1DF4
:1001BD001202C4AA1EEAD3940040297F1012022C09
:1001CD00AC1CAD1DCFCDCFCECCCE1200EBEF540F6E
:1001DD00FEC3940AEE5004243080022437FF12022D
:0401ED009D1A80D106
:0101F10022EB
:0401F2008A218B22B1
:1001F6001202C4AA23EAD394004028EA24FFFDE4AD
:1002060034FFFC7F027E00120236AC21AD22CFCD38
:10021600CFCECCCE1200EBEF54012430FF12029D5C
:030226001A80D269
:0102290022B2
:1002EE00EF4E600F7D027CEFDCFEDDFCEF1F70F049
:0302FE001E80ED72
:0103010022D9
:03000000020311E7
:0C031100787FE4F6D8FD7581230200031C
:1000AC00BB010CE58229F582E5833AF583E0225009
:1000BC0006E92582F8E622BBFE06E92582F8E22253
:0D00CC00E58229F582E5833AF583E493226D
:1000D900EF8DF0A4A8F0CF8CF0A428CE8DF0A42E3B
:0200E900FE22F5
:1000EB00BC000BBE0029EF8DF084FFADF022E4CCF9
:1000FB00F875F008EF2FFFEE33FEEC33FCEE9DECC2
:10010B00984005FCEE9DFE0FD5F0E9E4CEFD22ED07
:10011B00F8F5F0EE8420D21CFEADF075F008EF2F51
:10012B00FFED33FD4007985006D5F0F222C398FD42
:05013B000FD5F0EA22DF
:00000001FF
