:10049B004469676974616C4E756D4C6F636B2100B9
:1004AB004C6F6164696E672E2E2E00536574596F05
:1004BB0075724B6579004E756D53686F756C64552D
:1004CB006E64657239006C656E5B395D00456E74E8
:1004DB0065725468654B65793A0050726573733178
:1004EB0030546F44656C6574650020004B65794929
:1004FB007353657421210052657365744B65793FA5
:10050B00005965732D3E31204E6F2D3E32004B65E9
:10051B00794973526573657400506C6561736545F9
:10052B006E746572596F7572004B65793A002A00CB
:10053B0049204C6F766520596F752121004D79202C
:10054B0044656172207E200057726F6E674B657930
:10055B002100313A526574727920323A52657365D3
:02056B0074001A
:100003001207677BFF7A04799B7D017F011206DF6C
:100013007BFF7A0479AB7D017F021206DF7FD07EFE
:10002300071207531207677BFF7A0479B67D017FB6
:10003300011206DF7BFF7A0479C102025BE4F51B40
:10004300F51C1207677BFF7A0479D17D0A7F0112C1
:1000530006DF7FE87E03120753E4FF7E097809E495
:10006300F608DEFC7E007F091207677BFF7A0479BE
:10007300D87D017F011206DF1207677BFF7A0479BF
:10008300E57D017F021206DFE4F51BF51C1202B3C6
:100093008F08E50860F7640A7040E51C451B70048F
:1000A300F5088044AD1C7BFF7A0479F57F011206C5
:1000B300DFD3E51C9400E51B64809480400774083B
:1000C300251CF8E4F6E51C151C7002151BE51C1530
:1000D3001C7002151BE4F508800EE508C3940A5052
:1000E300AC7409251CF8A608E508640A6018E5083D
:1000F300C3940A5011E51C04FDE508FB7A0075253D
:10010300017F01120720E4F508E51C6408451B7014
:10011300191207677BFF7A0479F77D017F011206C5
:10012300DF7FD07E071207538016051CE51C700283
:10013300051BC39409E51B6480948050030200905F
:100143001207677BFF7A0579027D017F011206DFC3
:100153007BFF7A05790C7D017F021206DF1202B361
:100163008F08E50860F7B4011A1207677BFF7A0569
:1001730079197D017F011206DF7FD07E07120753B5
:0C0183000202A7E508640260030202AD5E
:10018F00E4F51FF520F51DF51E7412251EF8E4F693
:10019F00051EE51E7002051D6409451D70EB120753
:1001AF0067E4F5087BFF7A0579247D017F0112064C
:1001BF00DF7BFF7A0579347D017F021206DFE4F5DC
:1001CF001DF51E1202B38F08E50860F7C3940A509D
:1001DF00F2AF1E74122FF8A608E4F508EF2405FD00
:1001EF007BFF7A0579397F021206DF051EE51E7047
:1001FF0002051DC39409E51D6480948040C5751FD9
:10020F0000752001E4F51DF51EAF1E74092FF8E6E9
:10021F00FE74122FF8E66E6007E4F51FF520800ECE
:10022F00051EE51E7002051D6409451D70DBE520E6
:10023F006401451F70271207677BFF7A05793B7DA5
:10024F00017F011206DF7BFF7A0579487D017F026E
:10025F001206DF7FD07E0712075302004012076796
:10026F007BFF7A0579537D017F011206DF7FD07EF8
:10027F00071207531207677BFF7A05795D7D017FB0
:10028F00011206DF1202B38F08E50860F7B401030D
:0E029F0002018FE508B402ECE4F5080200400D
:0602AD00E4F50802016007
:10075300EF4E600F7D027CEFDCFEDDFCEF1F70F0DF
:030763001E80ED08
:010766002270
:06077B00C2A58F80D2A789
:080781007F027EEFDEFEDFFCCB
:01078900224D
:0A079600C2A612077BC2A70207816A
:10070200CFCDCFCECCCE1205AC7C007D0A1205AC8B
:04071200ED2430FFA3
:0A071600D2A612077BC2A7020781DA
:10073D00AE07BE0104ED148006BE0209ED243F4450
:06074D0080FF1207962256
:100767007F381207967F0C1207967F061207967F2F
:0407770001020796DE
:0A07A000AC0312073DAF0402071678
:0606DF008B218A22892311
:1006E50012073DE4FDAB21AA22A9238D8275830063
:0C06F50012056DFF60061207160D80E96B
:0107010022D5
:0C06AC007F0AEA24FFFDE434FFFC7E001E
:0806B8008E268F278C288D2966
:1006C0007F017E00E4FBEBC39529E5286480F87484
:0E06D0008098500AAC26AD2712059A0B80E8E0
:0106DE0022F9
:040720008A238B2479
:1007240012073DAA25EAD39400400D1206ACAC236F
:08073400AD241207021A80ED4A
:01073C00229A
:1006010012073DC3EA64809480400B7F2B120716CA
:100611008A2F8B30800E7F2D120716C3E49BF53095
:10062100E49AF52FAA2EEAD39400400D1206ACAC41
:090631002FAD301207021A80ED12
:01063A00229D
:04063B008A338B343F
:10063F0012073DAA35EAD3940040297F101206AE67
:10064F00AC33AD34CFCDCFCECCCE1205ACEF540FF3
:10065F00FEC3940AEE5004243080022437FF1207A1
:04066F00161A80D106
:010673002264
:040674008A388B39FC
:1006780012073DAA3AEAD394004028EA24FFFDE491
:1006880034FFFC7F027E001206B8AC38AD39CFCDFE
:10069800CFCECCCE1205ACEF54012430FF12071692
:0306A8001A80D2E3
:0106AB00222C
:1002B300E4F521F5237590FFE52314600E14600F18
:1002C3001460102403700EC293800AC2928006C287
:1002D300918002C290E5231460721470030203C577
:1002E3001470030204232403600302048C752207A1
:1002F300752401E522C39405500302048CE522B45E
:1003030007052097028012E522B406052096028095
:1003130008E522B40506209503852421E5216026FE
:100323007F0A7E00120753E522B407052097148045
:10033300FBE522B4060520966680FBE522B405039F
:100343003095FD02047C1522052480A775220775CC
:100353002404E522C39405404FE522B40705209702
:10036300028012E522B406052096028008E522B435
:100373000506209503852421E52160267F0A7E005A
:10038300120753E522B4070520971480FBE522B436
:10039300060520960A80FBE522B405033095FD028D
:1003A300047C1522052480AA30940302048C7F0A5E
:1003B3007E001207533094FD7F0A7E001207537F9D
:1003C3000022752207752407E522C3940550030212
:1003D300048CE522B407052097028012E522B406B7
:1003E300052096028008E522B4050620950385249E
:1003F30021E52160257F0A7E00120753E522B40719
:100403000520971480FBE522B4060520960A80FB9D
:10041300E522B405033095FD805F1522052480A8ED
:100423002097177F0A7E001207533097FD7F0A7EBD
:1004330000120753E4F521AF212275220675240A21
:10044300E522C394054042E522B4060520960280C6
:1004530008E522B40506209503852421E5216023C0
:100463007F0A7E00120753E522B4060520960A8010
:10047300FBE522B405033095FD7F0A7E0012075386
:10048300AF21221522052480B70523E523C3940455
:0704930050030202B8AF2183
:01049A00223F
:0300000002078A6A
:0C078A00787FE4F6D8FD75813A02000388
:10056D00BB010CE58229F582E5833AF583E0225043
:10057D0006E92582F8E622BBFE06E92582F8E2228D
:0D058D00E58229F582E5833AF583E49322A7
:10059A00EF8DF0A4A8F0CF8CF0A428CE8DF0A42E75
:0205AA00FE222F
:1005AC00BC000BBE0029EF8DF084FFADF022E4CC33
:1005BC00F875F008EF2FFFEE33FEEC33FCEE9DECFC
:1005CC00984005FCEE9DFE0FD5F0E9E4CEFD22ED42
:1005DC00F8F5F0EE8420D21CFEADF075F008EF2F8C
:1005EC00FFED33FD4007985006D5F0F222C398FD7D
:0505FC000FD5F0EA221A
:00000001FF
