:030000000200F10A
:0C00F100787FE4F6D8FD75810B02000357
:100003001200801200FD7BA77DD17F881200E07B68
:10001300A47DB37F8A1200E07BA37DC57F8C120091
:0C002300E07BA47DB17F8E1200E080DA4B
:09002F007F301200BA7F017E004F
:10003800E4FDFCC3ED9FEC9E5015E4FBFA0BBB00FE
:0F004800010AEB64784A70F50DBD00010C80E4ED
:010057002286
:1000BA00C2A6C2A58F80D2A70000C2A77F027E0077
:0300CA00020038F9
:1000CD00D2A6C2A58F80D2A70000C2A77F027E0054
:0300DD00020038E6
:100080007F287E0012003812002F12002F7F0C12E2
:1000900000311200BA7F027E001200387F06020093
:0100A000BAA5
:0C00FD007F011200BA7F027E0002003872
:07010900EF4480FF0200BA81
:100058008B088A09890A120109AB08AA09A90A1298
:1000680000A16013050AE50A7002050914F91200D7
:08007800A1FF1200CD80E2227D
:1000E0008D0BA903120109AF0B1200CDAF01020065
:0100F000CD42
:1000A100BB010689828A83E0225002E722BBFE025D
:0900B100E32289828A83E4932290
:00000001FF
