:030000000200B447
:0C00B400787FE4F6D8FD7581180200FB8F
:100140000A083F065B4F666D7D077F6F0712777C5D
:05015000395E79710029
:10000300EF14B40800505490001875F003A4C5838E
:1000130025F0C58373020030020034020038020069
:100023003C020040020048020050020058D2A48063
:100033000ED2A48012D2A48016D2A4801AC2A4D253
:10004300A3D2A28016C2A4D2A3C2A2800EC2A4C20B
:10005300A3D2A28006C2A4C2A3C2A2EC7052EDB482
:100063000A00504C90006EF828287302008C02009E
:100073009002009402009802009C0200A00200A4D7
:100083000200A80200AC0200B075803F22758030E8
:100093002275805B2275804F227580662275806D84
:1000A3002275807D227580072275807F2275806F7F
:0100B300222A
:10015600EF4E600F7D027CEFDCFEDDFCEF1F70F0E2
:030166001E80ED0B
:010169002273
:1000C000020000E493A3F8E493A34003F68001F256
:1000D00008DFF48029E493A3F85407240CC8C33341
:1000E000C4540F4420C8834004F456800146F6DF10
:1000F000E4800B0102040810204080900140E47E5F
:10010000019360BCA3FF543F30E509541FFEE49304
:10011000A360010ECF54C025E060A840B8E493A3CB
:10012000FAE493A3F8E493A3C8C582C8CAC583CAF6
:10013000F0A3C8C582C8CAC583CADFE9DEE780BEAE
:0101550000A9
:00000001FF
