:100382004D6172747269784B657921004C6F6164BA
:10039200696E672E2E2E005072657373204D617246
:1003A2007472697821004E756D4C6F636B5F427990
:0303B2005963008C
:100274001204707BFF7A0379827D017F011203E807
:100284007BFF7A03798E7D017F021203E87FD07EA3
:100294000712045C1204707BFF7A0379997D017F55
:1002A400021203E87FD07E0712045C1204707BFF05
:1002B4007A0379A87D017F011203E81200038F22DB
:1002C400E52260F7FB7A00750C027D017F011204C0
:0302D4002980E896
:10045C00EF4E600F7D027CEFDCFEDDFCEF1F70F0D9
:03046C001E80ED02
:01046F00226A
:06048400C2A58F80D2A783
:08048A007F027EEFDEFEDFFCC5
:010492002247
:0A049F00C2A6120484C2A702048A58
:10040B00CFCDCFCECCCE12021F7C007D0A12021FA5
:04041B00ED2430FF9D
:0A041F00D2A6120484C2A702048AC8
:10044600AE07BE0104ED148006BE0209ED243F444A
:0604560080FF12049F224A
:100470007F3812049F7F0C12049F7F0612049F7F17
:040480000102049FD2
:0A04A900AC03120446AF0402041F66
:0603E8008B088A09890A56
:1003EE00120446E4FDAB08AA09A90A8D82758300A2
:0C03FE001201E0FF600612041F0D80E9F0
:01040A0022CF
:0C03B5007F0AEA24FFFDE434FFFC7E0018
:0803C1008E0D8F0E8C0F8D10C4
:1003C9007F017E00E4FBEBC39510E50F6480F874B0
:0E03D9008098500AAC0DAD0E12020D0B80E89C
:0103E70022F3
:040429008A0A8B0BA5
:10042D00120446AA0CEAD39400400D1203B5AC0A8F
:08043D00AD0B12040B1A80ED57
:010445002294
:1002D700120446C3EA64809480400B7F2B12041FEC
:1002E7008A168B17800E7F2D12041FC3E49BF51708
:1002F700E49AF516AA15EAD39400400D1203B5AC9B
:0903070016AD1712040B1A80ED6B
:0103100022CA
:040311008A1A8B1B9E
:10031500120446AA1CEAD3940040297F101203B7A1
:10032500AC1AAD1BCFCDCFCECCCE12021FEF540FE2
:10033500FEC3940AEE5004243080022437FF1204D1
:040345001F1A80D12A
:010349002291
:04034A008A1F8B205B
:10034E00120446AA21EAD394004028EA24FFFDE4D1
:10035E0034FFFC7F027E001203C1AC1FAD20CFCD57
:10036E00CFCECCCE12021FEF54012430FF12041F49
:03037E001A80D210
:010381002259
:10000300E4F508F50A7590FFE50A14600E14600F15
:100013001460102403700EC293800AC2928006C239
:10002300918002C290E50A14607214700302010DFC
:1000330014700302016B240360030201D1750907E5
:10004300750B01E509C3940550030201D1E509B419
:1000530007052097028012E509B406052096028061
:1000630008E509B40506209503850B08E508602615
:100073007F0A7E0012045CE509B40705209714800B
:10008300FBE509B4060520966680FBE509B4050384
:100093003095FD0201C11509050B80A77509077588
:1000A3000B04E509C39405404FE509B40705209700
:1000B300028012E509B406052096028008E509B41A
:1000C3000506209503850B08E50860267F0A7E0058
:1000D30012045CE509B4070520971480FBE509B415
:1000E300060520960A80FBE509B405033095FD0259
:1000F30001C11509050B80AA3094030201D17F0ABF
:100103007E0012045C3094FD806B750907750B0744
:10011300E509C3940550030201D1E509B40705209D
:1001230097028012E509B406052096028008E509C6
:10013300B40506209503850B08E50860257F0A7E34
:100143000012045CE509B4070520971480FBE50958
:10015300B4060520960A80FBE509B405033095FD36
:10016300805C1509050B80A82097147F0A7E001276
:10017300045C3097FD7F0A7E0012045C7F002275C9
:100183000906750B0AE509C394054042E509B4065F
:10019300052096028008E509B40506209503850B22
:1001A30008E50860237F0A7E0012045CE509B406B3
:1001B3000520960A80FBE509B405033095FD7F0A07
:1001C3007E0012045CAF08221509050B80B7050AEF
:0C01D300E50AC394045003020008AF08C2
:0101DF0022FD
:0300000002049364
:0C049300787FE4F6D8FD75812202027427
:1001E000BB010CE58229F582E5833AF583E02250D4
:1001F00006E92582F8E622BBFE06E92582F8E2221E
:0D020000E58229F582E5833AF583E4932237
:10020D00EF8DF0A4A8F0CF8CF0A428CE8DF0A42E05
:02021D00FE22BF
:10021F00BC000BBE0029EF8DF084FFADF022E4CCC3
:10022F00F875F008EF2FFFEE33FEEC33FCEE9DEC8C
:10023F00984005FCEE9DFE0FD5F0E9E4CEFD22EDD2
:10024F00F8F5F0EE8420D21CFEADF075F008EF2F1C
:10025F00FFED33FD4007985006D5F0F222C398FD0D
:05026F000FD5F0EA22AA
:00000001FF
